:020000040800F2
:100000000000022011C60008610E0008630E0008FF
:10001000650E0008670E0008690E00080000000069
:10002000000000000000000000000000B1A3000874
:100030006B0E00080000000051A40008839E000819
:1000400065C6000865C6000865C6000865C60008E4
:1000500065C6000865C6000865C6000865C60008D4
:1000600065C6000865C6000865C600086D0E000874
:100070007D0E00088D0E000865C6000865C60008E4
:1000800065C6000865C6000865C6000865C60008A4
:1000900065C6000865C6000865C6000865C6000894
:1000A00065C6000865C6000865C6000865C6000884
:1000B00065C6000865C6000865C6000865C6000874
:1000C00065C6000865C6000865C6000865C6000864
:1000D0009D0E0008AD0E000865C6000865C6000844
:1000E00065C6000865C600080000000065C6000877
:1000F00065C6000865C6000865C6000865C6000834
:1001000065C6000865C6000865C6000865C6000823
:1001100065C6000865C6000865C60008BD0E000873
:10012000CD0E000865C6000865C6000865C6000853
:1001300065C6000865C6000865C6000865C60008F3
:1001400000000000000000000000000000000000AF
:1001500065C6000865C6000865C6000865C60008D3
:1001600065C6000865C6000865C6000865C60008C3
:1001700065C60008DD0E000865C600080000000026
:1001800065C6000865C6000865C6000865C60008A3
:1001900065C6000865C6000865C6000865C6000893
:1001A00065C6000865C6000865C6000800000000B6
:1001B00065C6000865C6000865C6000865C6000873
:1001C00065C6000865C600080000000000000000C9
:1001D000000000000000000065C6000800000000EC
:1001E000000000000000000000000000000000000F
:1001F000000000000000000065C6000865C6000899
:1002000065C6000865C600080000000065C6000855
:1002100065C6000865C6000865C6000865C6000812
:1002200065C600080000000065C600080000000068
:1002300065C6000865C600080000000065C6000825
:1002400065C6000865C6000865C6000865C60008E2
:1002500065C6000865C6000865C6000865C60008D2
:1002600065C6000865C6000865C6000865C60008C2
:1002700065C6000865C6000865C6000800000000E5
:1002800065C6000865C6000865C6000865C60008A2
:100290000000000065C6000865C6000800000000F8
:1002A0000000000065C6000865C6000865C60008B5
:1002B00065C6000865C6000865C6000865C6000872
:0C02C00065C6000865C6000865C6000899
:1002D00081F0004102E000BF83F0004330B54FEAF7
:1002E00041044FEA430594EA050F08BF90EA020F64
:1002F0001FBF54EA000C55EA020C7FEA645C7FEAF7
:10030000655C00F0E2804FEA5454D4EB5555B8BF19
:100310006D420CDD2C4480EA020281EA030382EA8A
:10032000000083EA010180EA020281EA0303362D1C
:1003300088BF30BD11F0004F4FEA01314FF4801CEF
:100340004CEA113102D0404261EB410113F0004F01
:100350004FEA03334CEA133302D0524263EB4303B8
:1003600094EA050F00F0A780A4F10104D5F1200E56
:100370000DDB02FA0EFC22FA05F2801841F10001B1
:1003800003FA0EF2801843FA05F359410EE0A5F185
:1003900020050EF1200E012A03FA0EFC28BF4CF0B6
:1003A000020C43FA05F3C01851EBE37101F000456C
:1003B00007D54FF0000EDCF1000C7EEB00006EEB79
:1003C0000101B1F5801F1BD3B1F5001F0CD3490803
:1003D0005FEA30004FEA3C0C04F101044FEA44525A
:1003E00012F5800F80F09A80BCF1004F08BF5FEAE1
:1003F000500C50F1000041EB045141EA050130BDC1
:100400005FEA4C0C404141EB0101013C28BFB1F5D2
:10041000801FE9D291F0000F04BF01460020B1FA1D
:1004200081F308BF2033A3F10B03B3F120020CDAF0
:100430000C3208DD02F1140CC2F10C0201FA0CF0CE
:1004400021FA02F10CE002F11402D8BFC2F1200C33
:1004500001FA02F120FA0CFCDCBF41EA0C019040E9
:10046000E41AA2BF01EB0451294330BD6FEA040432
:100470001F3C1CDA0C340EDC04F11404C4F120021D
:1004800020FA04F001FA02F340EA030021FA04F32F
:1004900045EA030130BDC4F10C04C4F1200220FA86
:1004A00002F001FA04F340EA0300294630BD21FAC4
:1004B00004F0294630BD94F0000F83F4801306BF8A
:1004C00081F480110134013D4EE77FEA645C18BF7E
:1004D0007FEA655C29D094EA050F08BF90EA020F15
:1004E00005D054EA000C04BF1946104630BD91EA0D
:1004F000030F1EBF0021002030BD5FEA545C05D110
:100500004000494128BF41F0004130BD14F580044E
:100510003CBF01F5801130BD01F0004545F0FE41C2
:1005200041F470014FF0000030BD7FEA645C1ABFF7
:10053000194610467FEA655C1CBF0B46024650EA2E
:10054000013406BF52EA033591EA030F41F400215A
:1005500030BD00BF90F0000F04BF0021704730B5E0
:100560004FF4806404F132044FF000054FF00001B5
:1005700050E700BF90F0000F04BF0021704730B576
:100580004FF4806404F1320410F0004548BF40424B
:100590004FF000013EE700BF42004FEAE2014FEAA0
:1005A00031014FEA02701FBF12F07F4393F07F4F7B
:1005B00081F06051704732F07F4208BF704793F07E
:1005C0007F4F04BF41F40021704730B54FF4607491
:1005D00001F0004521F000411CE700BF50EA010294
:1005E00008BF704730B54FF000050AE050EA01023D
:1005F00008BF704730B511F0004502D5404261EBAD
:1006000041014FF4806404F132045FEA915C3FF4ED
:10061000D8AE4FF003025FEADC0C18BF03325FEA8A
:10062000DC0C18BF033202EBDC02C2F1200300FA3B
:1006300003FC20FA02F001FA03FE40EA0E0021FA60
:1006400002F11444BDE600BF53B94AB9002908BFFE
:1006500000281CBF4FF0FF314FF0FF3000F00CB806
:10066000ADF1080C6DE904CE0CF044FDDDF804E0BA
:10067000DDE9022304B07047704700BF0348044B14
:10068000834202D0034B03B118477047700100202A
:1006900070010020000000000548064B1B1AD90F0E
:1006A00001EBA301491002D0034B03B11847704777
:1006B00070010020700100200000000010B5064C01
:1006C000237843B9FFF7DAFF044B13B10448AFF3C3
:1006D00000800123237010BD700100200000000085
:1006E00020D4000808B5054B1BB105490548AFF3F8
:1006F0000080BDE80840FFF7CFBF00BF000000004A
:100700007401002020D4000830B585B00024009486
:1007100001940294039406F0C3F901238DF800308C
:100720008DF8014001941F228DF8082087228DF852
:1007300009208DF80A408DF80B408DF80C308DF8AB
:100740000D308DF80E408DF80F40684606F0C6F962
:10075000042006F0B3F905B030BD000008B502680A
:10076000034B9A4200D008BD06F014FAFBE700BF25
:100770000014004072B6FEE700B59DB04C22002187
:1007800009A80BF070FF2022002101A80BF06BFFDD
:10079000022006F0E9F8002300931F4B9A6922F427
:1007A00040429A619B6903F440430093009B1A4BBB
:1007B0009B6913F4005FFAD0012209924FF4803351
:1007C0000A930223129313931493282115911692DE
:1007D0000422179218930C23199300231A931B9346
:1007E00009A803F03FF898B93F2301930321029130
:1007F0000390082304934023059306934FF48062EB
:100800000792089301A803F019FC18B91DB000BDA8
:10081000FFF7B0FFFFF7AEFF0048025808B5FFF73B
:1008200073FF174B5B6913F4003F13D1BFF34F8F76
:10083000BFF36F8F124B0022C3F85022BFF34F8FCC
:10084000BFF36F8F5A6942F400325A61BFF34F8F82
:10085000BFF36F8F06F06EF9FFF78EFF00F012F80E
:1008600000F096F800F0D4F800F036FA00F0F2F953
:1008700009F014FB00F064F809F022FBFEE700BF6A
:1008800000ED00E070B58AB005AD00240594069433
:10089000079408940994244BD3F8E02042F0800296
:1008A000C3F8E020D3F8E02002F080020192019A20
:1008B000D3F8E02042F00402C3F8E020D3F8E020AF
:1008C00002F004020292029AD3F8E02042F00202FF
:1008D000C3F8E020D3F8E02002F002020392039A6A
:1008E000D3F8E02042F00102C3F8E020D3F8E03072
:1008F00003F001030493049B0C4E22460921304669
:1009000004F0B4FE09230593012306930794089489
:100910002946304604F0A2FD21464FF0006006F063
:100920005FF90AB070BD00BF0044025800080258C9
:1009300008B500F043FB012009F041FBFBE7000094
:1009400008B50B4A0121084609F046FB094B18601F
:10095000094A0021094809F0D1FA094B1860094AEF
:100960000021094809F0CAFA084B186008BD00BF09
:10097000B8D400088C010020ECD40008310900082C
:1009800094010020C8D4000805BA00089001002096
:1009900000B583B01D4BD3F8D82042F00102C3F854
:1009A000D820D3F8D82002F001020092009AD3F8A0
:1009B000D82042F00202C3F8D820D3F8D83003F090
:1009C00002030193019B002205210B2006F054F83D
:1009D0000B2006F061F8002211460C2006F04CF8BE
:1009E0000C2006F059F8002211460D2006F044F8BC
:1009F0000D2006F051F800221146382006F03CF890
:100A0000382006F049F803B000BD00BF004402588A
:100A100008B51548154B03604FF48003436000236D
:100A200083600722C2604FF0007202614FF0807253
:100A300042614FF0806282614FF08042C261036286
:100A400043628362C36242638363C3630364436438
:100A50008364C36403654365836506F05BF900B98D
:100A600008BDFFF787FEFBE7880200200038004042
:100A7000F0B5B9B0044600213391349135913691E7
:100A80003791B82204A80BF0EEFD2268474B9A423A
:100A900001D039B0F0BD4FF480520023CDE90423DA
:100AA00004A803F08DFD002877D1414BD3F8E8204E
:100AB00042F48042C3F8E820D3F8E82002F48042F0
:100AC0000192019AD3F8E02042F00402C3F8E0203A
:100AD000D3F8E02002F004020292029AD3F8E02058
:100AE00042F00202C3F8E020D3F8E03003F0020342
:100AF0000393039B062333930226349600253595F2
:100B0000032736970523379333A92A4804F0A6FC18
:100B10004FF4005333933496359536970523379326
:100B200033A9254804F09AFC2448254B0360272369
:100B300043608560C5604FF48063036145618561F2
:100B4000C5614FF400330362456204F0D5FE38BB43
:100B50001A4BE3679C631B481B4B036028234360CD
:100B6000402383600023C3604FF4806202614361CD
:100B70008361C3614FF480320262436204F0BCFEC1
:100B800088B9104BA3679C6300220521242005F03F
:100B900073FF242005F080FF7BE7FFF7EBFD84E780
:100BA000FFF7E8FDD4E7FFF7E5FDEAE7003800408E
:100BB00000440258000802580004025810020020A5
:100BC00028000240980100204000024002680A4BC1
:100BD0009A4200D0704782B0084BD3F8E82042F028
:100BE0000202C3F8E820D3F8E83003F002030193CF
:100BF000019B02B0704700BF00040040004402584F
:100C000000B587B0002301930293039304930593E7
:100C100002680D4B9A4201D007B000BD0B4BD3F8D0
:100C2000E02042F00202C3F8E020D3F8E03003F005
:100C300002030093009B022301930293059301A9F1
:100C4000034804F00BFCE7E70004004000440258AE
:100C50000004025800B58BB0002307930893099352
:100C6000009301930293039304930593069318480A
:100C7000184A026017224260836042F20F72C2601B
:100C800003618023836100F033FFC0B90023079321
:100C9000099307A90E4801F013F998B9602300934E
:100CA00000230193029304930C226946084800F044
:100CB000A1FF50B90648FFF7A3FF0BB000BDFFF737
:100CC00059FDE3E7FFF756FDE8E7FFF753FDF1E7CE
:100CD000100300200004004008B51748174B0360BC
:100CE0004FF4E133436000238360C36003610C224F
:100CF00042618361C36103624362836207F00CFC5B
:100D000070B900210C4807F087FC60B900210A483F
:100D100007F0A7FC50B9084807F05FFC48B908BDC8
:100D2000FFF728FDEDE7FFF725FDEFE7FFF722FDD1
:100D3000F1E7FFF71FFDF2E74C040020001001402F
:100D400030B5B7B0044600213191329133913491DE
:100D50003591B82202A80BF086FC2268394B9A42E2
:100D600001D037B030BD01220023CDE9022302A813
:100D700003F026FC00285CD1334BD3F8F02042F07E
:100D80001002C3F8F020D3F8F02002F01002009215
:100D9000009AD3F8E02042F00102C3F8E020D3F833
:100DA000E03003F001030193019B4FF4C0633193E2
:100DB000022332930025339534950723359331A9C7
:100DC000224804F04BFB2248224B03602923436056
:100DD0008560C5604FF48063036145618561C561CD
:100DE0000562456204F088FD30BB194BC4F88030C1
:100DF0009C631948194B03602A2343604023836096
:100E00000023C3604FF48062026143618361C36168
:100E10000362436204F070FD88B90F4BE3679C6383
:100E200000220521252005F027FE252005F034FEAF
:100E300097E7FFF79FFC9FE7FFF79CFCD5E7FFF7DD
:100E400099FCEAE7001001400044025800000258F3
:100E5000D4030020100002405C0300201004024074
:100E6000FEE7FEE7FEE7FEE7FEE7704708B502484B
:100E700005F0E0F908BD00BFD403002008B5024822
:100E800005F0D8F908BD00BF1002002008B50248DF
:100E900005F0D0F908BD00BF9801002008B5024850
:100EA00006F05AFA08BD00BF8802002008B50248C3
:100EB00006F0E4FC08BD00BF4C04002008B5024861
:100EC00000F086FC08BD00BFE004002008B5024821
:100ED00005F0B0F908BD00BF5C03002008B502486A
:100EE00001F086FB08BD00BF281C002000B583B0C0
:100EF0000A4BD3F8F42042F00202C3F8F420D3F8EE
:100F0000F43003F002030193019B00220F216FF0E4
:100F1000010005F0B1FD03B000BD00BF0044025860
:100F20000F2801D90120704710B58AB0044600226D
:100F30000146372005F0A0FD372005F0ADFD1A4B26
:100F40001C601A4BD3F8E82042F02002C3F8E820D6
:100F5000D3F8E83003F020030093009B01A902A816
:100F600003F0FCF9079BBBB903F0D4F90346104A20
:100F7000A2FB03239B0C013B0E480F4A026040F288
:100F8000E732C260436000230361836000F080FDAC
:100F900030B101200AB010BD03F0BCF94300E6E710
:100FA000044800F0C1FBF5E76C0000200044025843
:100FB00083DE1B43E00400200014004008B501223A
:100FC0001049114809F05CFB80B910490E4809F03E
:100FD0006EFB70B90E490C480AF07FFB60B90A48F5
:100FE00009F085FB58B905F0E9FC08BDFFF7C2FB25
:100FF000EBE7FFF7BFFBEDE7FFF7BCFBEFE7FFF722
:10100000B9FBF0E7340000202C050020C0000020D0
:101010005400002012230B8000487047200000205D
:1010200004230B80004870471C00002000239342DB
:101030001DD200B510E00CF1370C01F813C000010F
:101040004FEA430C0CF1010C4FF0000E01F80CE0DC
:101050000133DBB2934209D24FEA107CB0F1204F4A
:10106000E9D20CF1300C01F813C0E8E700BD70477D
:101070000B4BD3F80008D3F80428D3F80838C0186D
:1010800000D1704710B5144608220649FFF7CEFF7D
:101090000422044B03F110012046FFF7C7FF10BDE7
:1010A00000E0F11F0200002008B51A230B80FFF7B3
:1010B000DFFF014808BD00BF0000002008B50A4658
:1010C00028B9054905480AF086F8034808BD0249D1
:1010D00002480AF080F8F8E70808002058D4000811
:1010E00010B50A46034C214603480AF074F820461E
:1010F00010BD00BF0808002070D4000808B50A46DB
:1011000028B9054905480AF066F8034808BD0249B0
:1011100002480AF060F8F8E70808002084D40008C4
:1011200008B50A4628B9054905480AF054F80348A5
:1011300008BD024902480AF04EF8F8E70808002006
:1011400090D40008002070470020704700207047AE
:1011500010B50146044C20460AF0D8FA20460AF0A1
:10116000E1FA002010BD00BF2C05002010B5064C90
:101170000022064920460AF0BBFA054920460AF03B
:10118000C5FA002010BD00BF2C050020080A002071
:101190000812002010B5B0B00446B822002102A801
:1011A0000BF061FA2268164B9A4201D030B010BDA4
:1011B0004FF480220023CDE902234FF480132393C0
:1011C00002A803F0FDF9B8B905F0F8FB0D4BD3F810
:1011D000D82042F00072C3F8D820D3F8D83003F0FA
:1011E00000730193019B002205214D2005F044FC72
:1011F0004D2005F051FCD9E7FFF7BCFAE4E700BF4A
:10120000000004400044025808B500F29C41D0F8A8
:10121000E00409F082FA08BD08B501EBC10300EB58
:101220008303D3F86022D0F8E00409F044FB08BD42
:1012300008B501EBC10300EB83031A6AD0F8E004A0
:1012400009F099FB08BD08B5D0F8E00409F0E1FA0F
:1012500008BD10B50446C17911B1022909D1012197
:10126000D4F8E00409F0B8FAD4F8E00409F081FAFF
:1012700010BDFFF77FFA0121F2E7000010B5044628
:10128000D0F8E00409F0ABFA2268D2F8003E43F04F
:101290000103C2F8003EE37A23B1034A136943F025
:1012A0000603136110BD00BF00ED00E008B5D0F8E3
:1012B000E00409F0A2FA08BD08B5D0F8E00409F08E
:1012C000CEFA08BD08B5D0F8E00409F0B2FA08BDBE
:1012D00008B5D0F8E00409F0D8FA08BD08B5D0F890
:1012E000E00409F0D4FA08BD08B50378012B01D059
:1012F000002008BD154BC3F8E004C0F8C832144AFA
:101300001A6009221A710221D97100229A71597248
:101310009A72DA721A739A73DA731A74184600F0B2
:1013200094FE80B94FF40071084801F0A0FC8022BF
:101330000021064801F076FC4FF4BA7201210348FF
:1013400001F070FCD4E7FFF715FAEBE7281C00204A
:1013500000000440D0F8C83211F0800F08D101F02D
:101360007F0101EBC10103EB810393F85602704743
:1013700001F07F0101EBC10103EB8103987D704710
:1013800008B5D0F8C80201F06EF808BD00487047F3
:10139000081A00207047022804D005D808B103209D
:1013A00070477047012070470320704708B5D0F898
:1013B000C80200F0CEFEFFF7EEFF08BD08B5944668
:1013C0001A466346D0F8C80200F0A5FFFFF7E3FF16
:1013D00008BD08B5D0F8C80200F0E8FFFFF7DBFF52
:1013E00008BD08B5D0F8C80201F06BF8FFF7D3FFCD
:1013F00008BD08B5D0F8C80201F0A6F8FFF7CBFF8A
:1014000008BD08B5D0F8C80200F072FFFFF7C3FFAF
:1014100008BD08B5D0F8C80201F02EF8FFF7BBFFF1
:1014200008BD08B5D0F8C80200F0F8FFFFF7B3FF19
:1014300008BD000030B5026A036A23F001030362AD
:101440004468D0F818C0234B0CEA03030D6845EA42
:10145000030E22F002028B6813431F4ADFF888C094
:10146000604518BF90420CBF0122002211D00CF53C
:10147000804C604514BF4FF0000C4FF0010C174D2D
:10148000A84206D0BCF1000F03D1DFF858C0604578
:1014900005D123F00803CD682B4323F0040362B980
:1014A0000F4A904214BF00220122DFF830C060458D
:1014B00003D012B90B4A904205D124F440744A6912
:1014C00022438C6914434460C0F818E04A684263C0
:1014D000036230BD8CFFFEFF000001400040014070
:1014E00000440140004801400004014010B58C4612
:1014F000036A026A22F480720262D0F804E0C169D1
:101500001D4A0A40DCF80040144323F40073DCF861
:10151000082043EA0223194A1949884218BF904219
:101520000CBF0122002207D123F40063DCF80C1069
:1015300043EA012323F480635AB9124A904214BF4C
:10154000002201221049884203D012B90F4A90426A
:1015500009D12EF44052DCF8141042EA0112DCF8F2
:10156000181042EA011EC0F804E0C461DCF804204F
:10157000C263036210BD00BF8CFFFEFF000001408C
:101580000004014000440140004001400048014087
:1015900010B5036A026A22F480520262D0F804C0D5
:1015A000D0F81CE0184A0EEA02020C6842EA042253
:1015B00023F400538C6843EA0433DFF854E0134CFF
:1015C000704518BFA04212D00EF5804E704514BF72
:1015D0004FF0000E4FF0010E04F58044A04206D0FB
:1015E000BEF1000F03D1DFF82CE0704504D12CF4DC
:1015F000804C4C694CEA841CC0F804C0C2614A6843
:101600000264036210BD00BFFF8CFFFE00000140BA
:10161000000401400048014030B5036A026A22F428
:10162000803202624268446DDFF860C004EA0C0C4C
:101630000C6844EA0C0423F400338D6843EA054344
:10164000DFF84CE0DFF84CC0604518BF704512D0A1
:101650000CF5804C604514BF4FF0000C4FF0010CAE
:101660000EF5804E704506D0BCF1000F03D1DFF8B7
:1016700028C0604504D122F480324D6942EA052237
:10168000426044654A688265036230BD8FFFFEFF99
:1016900000000140000401400048014010B5036A09
:1016A000026A22F480120262D0F804C0D0F854E03A
:1016B000184A0EEA02020C6842EA042223F40013DC
:1016C0008C6843EA0453DFF854E0134C704518BFAC
:1016D000A04212D00EF5804E704514BF4FF0000EA0
:1016E0004FF0010E04F58044A04206D0BEF1000F79
:1016F00003D1DFF82CE0704504D12CF4802C4C6928
:101700004CEA842CC0F804C042654A68C265036292
:1017100010BD00BFFF8FFFFE00000140000401402C
:10172000004801407047000090F83D30012B42D145
:10173000022380F83D300268D36843F00103D36090
:1017400003681F4AB3F1804F18BF934225D0A2F51A
:101750007C42934221D002F5806293421DD002F573
:101760008062934219D002F57842934215D0A2F5D7
:101770006C42934211D002F5943293420DD0A2F5FF
:10178000C042934209D002F58062934205D01A68A4
:1017900042F001021A60002070479968094A0A4025
:1017A000062A18BFB2F5803F07D01A6842F001023E
:1017B0001A6000207047012070470020704700BF6A
:1017C00000000140070001007047704770477047F4
:1017D00070B504460368DE681D6915F0020F10D06D
:1017E00016F0020F0DD06FF002021A610123037789
:1017F00003689B6913F0030F67D0FFF7E6FF002330
:10180000237715F0040F12D016F0040F0FD02368C1
:101810006FF004021A610223237723689B6913F493
:10182000407F58D02046FFF7D0FF0023237715F0E4
:10183000080F12D016F0080F0FD023686FF00802BF
:101840001A61042323772368DB6913F0030F49D05F
:101850002046FFF7BAFF0023237715F0100F12D0B0
:1018600016F0100F0FD023686FF010021A610823D2
:1018700023772368DB6913F4407F3AD02046FFF7D3
:10188000A4FF0023237715F0010F02D016F0010FFB
:1018900036D115F0800F02D115F4005F02D016F09A
:1018A000800F35D115F4807F02D016F0800F37D12C
:1018B00015F0400F02D016F0400F39D115F0200F6F
:1018C00002D016F0200F3BD170BDFFF77DFF204600
:1018D000FFF77CFF93E72046FFF776FF2046FFF7F0
:1018E00075FFA2E72046FFF76FFF2046FFF76EFF68
:1018F000B1E72046FFF768FF2046FFF767FFC0E724
:1019000023686FF001021A612046FEF727FFC0E747
:1019100023686FF402521A61204600F02CFBC1E7E5
:1019200023686FF480721A61204600F025FBBFE740
:1019300023686FF040021A612046FFF748FFBDE7B9
:1019400023686FF020021A61204600F013FBBBE70A
:1019500010B58C460368464A904214BF002201220B
:10196000B0F1804F14BF114642F00101F1B9DFF828
:1019700008E1704514BF4FF0000E4FF0010E3D4CD2
:10198000A04213D0BEF1000F10D10EF1804E0EF523
:10199000823E704514BF4FF0000E4FF0010E04F56B
:1019A0000064A04202D0BEF1000F04D023F0700307
:1019B000DCF80440234369BB2F49884214BF00214F
:1019C0000121DFF8B0E0704524D019BB01F180415E
:1019D00001F58231884214BF002101210EF5006E0D
:1019E000704517D0B1B92549884214BF00210121A3
:1019F0000EF59A3E70450DD061B92149884214BF59
:101A0000002101210EF5006E704503D011B91D496A
:101A1000884204D123F44073DCF80C100B4323F00C
:101A20008003DCF814100B43DCF80810C162DCF80A
:101A3000001081621449884208BF42F0010262B975
:101A40000E4A904214BF0022012201F570518842D3
:101A500003D012B90D4A904202D1DCF81020026383
:101A6000026842F00402026001224261036010BD7C
:101A70000000014000040040000800400044014014
:101A800000E0004000E40040000401400048014044
:101A900060B310B5044690F83D3013B3022384F8C8
:101AA0003D30214651F8040BFFF752FF012384F823
:101AB000483084F83E3084F83F3084F8403084F871
:101AC000413084F8423084F8433084F8443084F85C
:101AD000453084F8463084F8473084F83D300020A3
:101AE00010BD80F83C30FFF71DFED7E7012070479E
:101AF00060B310B5044690F83D3013B3022384F868
:101B00003D30214651F8040BFFF722FF012384F8F2
:101B1000483084F83E3084F83F3084F8403084F810
:101B2000413084F8423084F8433084F8443084F8FB
:101B3000453084F8463084F8473084F83D30002042
:101B400010BD80F83C30FFF741F8D7E7012070471F
:101B500010B58E46036A026A22F010020262D0F8C3
:101B600004C081691D4C0C40DEF8001044EA0124D9
:101B700023F02003DEF8082043EA0213184A19492B
:101B8000884218BF90420CBF0122002207D123F0E7
:101B90008003DEF80C1043EA011323F040035AB926
:101BA000114A904214BF002201221049884203D0FA
:101BB00012B90F4A904209D12CF4406CDEF814207F
:101BC0004CEA820CDEF818204CEA820CC0F804C003
:101BD0008461DEF804208263036210BDFF8CFFFE87
:101BE0000000014000040140004401400040014069
:101BF0000048014038B590F83C30012B00F0988047
:101C00000446012380F83C300C2A66D01ED8042AF2
:101C100038D0082A4CD0BAB90D460068FFF70AFC44
:101C20002268936943F0080393612268936923F063
:101C3000040393612268936929690B43936100202F
:101C4000002384F83C3038BD1846F9E7102A5AD0F2
:101C5000142A15D10D460068FFF720FD2268536D48
:101C600043F4006353652268536D23F48063536526
:101C70002268536D296943EA012353650020DFE799
:101C80000120DDE70D460068FFF762FF22689369D7
:101C900043F4006393612268936923F48063936142
:101CA00022689369296943EA012393610020C7E709
:101CB0000D460068FFF71AFC2268D36943F0080359
:101CC000D3612268D36923F00403D3612268D36906
:101CD00029690B43D3610020B2E70D460068FFF786
:101CE00057FC2268D36943F40063D3612268D36947
:101CF00023F48063D3612268D369296943EA01230D
:101D0000D36100209CE70D460068FFF785FC226840
:101D1000536D43F0080353652268536D23F00403A9
:101D200053652268536D29690B435365002087E78B
:101D3000022088E701F01F014FF0010C0CFA01FCB2
:101D4000036A23EA0C030362036A8A4013430362B3
:101D50007047000010B504460B46002955D190F895
:101D60003E20013A18BF0122002A40F09E80002B3D
:101D700071D1022284F83E20012219462068FFF723
:101D8000D9FF23684B494C4A934218BF8B420BD072
:101D900002F57052934207D002F58062934203D05D
:101DA00002F58062934203D15A6C42F400425A64B5
:101DB0002368404AB3F1804F18BF934267D0A2F521
:101DC0007C42934263D002F5806293425FD002F579
:101DD000806293425BD002F57842934257D0A2F5DD
:101DE0006C42934253D002F5943293424FD0A2F505
:101DF000C04293424BD002F58062934247D01A68AA
:101E000042F001021A60002050E004290BD008299A
:101E10000FD00C2913D0102917D090F84320013A85
:101E200018BF0122A0E790F83F20013A18BF012215
:101E30009AE790F84020013A18BF012294E790F801
:101E40004120013A18BF01228EE790F84220013A62
:101E500018BF012288E7042B09D0082B0BD00C2BCC
:101E60000DD0102B0FD0022284F8432084E70222E9
:101E700084F83F2080E7022284F840207CE7022299
:101E800084F8412078E7022284F8422074E79968B8
:101E90000A4A0A40062A18BFB2F5803F07D01A68DE
:101EA00042F001021A60002000E0012010BD002075
:101EB000FCE700BF000001400004014007000100F2
:101EC00090F83C20012A4FD010B50346012280F83B
:101ED0003C20022280F83D2002685068D2F808C0F9
:101EE000DFF88CE0214C724518BFA24203D120F4E8
:101EF00070004C68204320F070000C682043506054
:101F00001A681A48B2F1804F18BF82421FD0A0F55C
:101F10007C4082421BD000F58060824217D000F5E1
:101F20008060824213D000F5784082420FD0A0F545
:101F30006C4082420BD000F59430824207D0A0F56D
:101F4000C040824203D000F58060824205D12CF06F
:101F5000800C896841EA0C019160012283F83D20E0
:101F6000002083F83C0010BD0220704700000140B3
:101F7000000401407047704770472DE9F04383B07B
:101F8000D0F8008001EBC10300EB83039A6A5B6A1F
:101F90009A4254D807460C469B1A01EBC10200EB4B
:101FA0008202D2699A4200D31A4602F103094FEA2B
:101FB000990915E006F103094FEA990904EBC405F4
:101FC00007EB8505296ABB790093B3B2E2B24046BC
:101FD00001F0A8F92B6A33442B62AB6A3344AB623D
:101FE00008EB441303F510639B699BB24B4512D376
:101FF00004EBC40307EB83039A6A5B6A9A420AD232
:102000004BB19B1A04EBC40207EB8202D6699E42D5
:10201000D0D31E46CEE704EBC40307EB83077A6AEE
:10202000BB6A9A420FD804F00F040122A240D8F8EC
:10203000343823EA0203C8F83438002000E00120D5
:1020400003B0BDE8F0830020FAE730B583B0002884
:102050007CD0044690F89534B3B1032384F89534CA
:10206000206800F00DFF237C8DF80030231D0ECB7F
:10207000206800F03BFE60B1022384F89534012310
:102080001D46284603B030BD80F89434FFF782F82F
:10209000E3E70146206801F078FB0246B8B9034641
:1020A0002079984219D903EBC30104EB8101012087
:1020B00048750B75CB8500200876C861086203EB74
:1020C000C30104EB810148620133DBB2E8E702237C
:1020D00084F8953401231D46D3E7904217D902EBCB
:1020E000C20304EB8303002183F8551283F85422C2
:1020F00083F85812C3F85C12C3F8601202EBC203F3
:1021000004EB8303C3F864120132D2B2E5E7237C07
:102110008DF80030231D0ECB206800F007FF054628
:1021200050B96074012384F89534237B012B09D0C6
:10213000206801F0E9FAA4E7022384F8953401232A
:102140001D469EE7204600F097FDF1E701231D465E
:1021500097E7036890F89424012A1AD010B5044632
:10216000012280F89424DA6812F0400F02D0427BFA
:10217000012A09D0206800F07DFE206801F0B6FA3F
:10218000002084F8940410BD9A6B42F480329A6364
:10219000F0E702207047000038B504460D4600689D
:1021A000D0F840C000EB411303F530639A68A17981
:1021B000012911D038498C4556D03DB905EBC503EE
:1021C00004EB8303D3F86432002B5ED0E9B22046DF
:1021D000FFF722F8002038BD12F0080F09D02F4970
:1021E0008C45F7D912F4004FF4D04FF400429A60B6
:1021F000F0E712F0200F02D020229A60EAE712F0F6
:10220000280FE7D125498C4506D912F4004F03D099
:102210004FF400429A60DDE705EBC50204EB820251
:10222000D2F874121B69C3F31203CB1AC2F86832D6
:102230007DB905EBC50204EB8202D2F864226AB1D3
:1022400005EBC50204EB8202D2F860121944C2F811
:102250006012E9B22046FEF7DFFFBBE704F29C42C2
:10226000012101F0D1FAF4E712F4004F03D04FF44A
:1022700000429A60AEE712F0200F01D020229A604F
:10228000E9B22046FEF7C8FFA4E704F29C421946D3
:1022900001F0BAFA9AE700BF0A31544F0A30544F9E
:1022A00038B5044603681D6C03EB4113D3F8081BD3
:1022B0000E4A954207D903F5306311F4004F02D05E
:1022C0004FF400429A602046FEF79EFF074B9D4266
:1022D00002D9A379012B01D0002038BD04F29C4221
:1022E0000121206801F090FAF6E700BF0A30544F50
:1022F00090F89434012B0CD010B50446012380F8DB
:1023000094344174006801F0E1F9002084F89404E9
:1023100010BD0220704710B50446084611F0800F2A
:102320002ED101F00F0E0EEBCE0C4FEA8C0C0CF5FB
:10233000147CA4440CF104010EEBCE0E04EB8E0EC3
:102340004FF0000C8EF855C200F00F0C81F800C061
:10235000C2F30A028A600B714A780AB1A1F81AC066
:10236000022B1ED094F89434012B1DD0012384F845
:102370009434206800F0B6FE002084F8940410BD68
:1023800001F00F0C0CEBCC01890010312144043119
:102390000CEBCC0C04EB8C0C4FF0010E8CF815E020
:1023A000D2E700234B71DDE70220E8E710B50446D1
:1023B0000A4611F0800F20D101F00F0000EBC0039E
:1023C0009B0003F514732344191D00EBC00004EBBC
:1023D0008000002380F8553202F00F020A7094F852
:1023E0009434012B18D0012384F89434206800F031
:1023F000C9FE002084F8940410BD01F00F0000EB2A
:10240000C0039B0010332344191D00EBC00004EBF4
:10241000800001234375DFE70220EDE708B501F0F6
:102420000F0C0CEBCC01890001F51471014404314F
:102430000CEBCC0E00EB8E0ECEF86022CEF86432A0
:102440000023CEF868328EF855328EF854C2837964
:10245000012B05D01A46006800F07CFF002008BD63
:10246000CEF87022F6E701F00F0101EBC10100EB9D
:102470008100D0F86802704708B501F00F0C0CEB32
:10248000CC0189001031014404310CEBCC0E00EB7F
:102490008E0ECEF82020CEF824300023CEF828303F
:1024A00001238EF815308EF814C08379012B05D0E6
:1024B0001A46006800F04EFF002008BDCEF830201C
:1024C000F6E738B501F00F050279AA4238D3044681
:1024D0000B4611F0800F1FD101EBC101890001F5FE
:1024E00014710144043103EBC30300EB83030022A6
:1024F00083F8552201238B700D7094F89434012BCE
:1025000020D0012384F89434206801F084F885B148
:10251000002084F8940438BD05EBC5018900103112
:102520000144043105EBC50300EB830301225A7516
:10253000E0E704F29C42A179206801F065F9E7E741
:102540000120E8E70220E6E701F00F0302799A4252
:1025500030D310B5044611F0800F1ED103EBC30138
:10256000890001F514710144043103EBC30200EB4F
:102570008202002082F8550200228A700B7094F8C3
:102580009434012B18D0012384F89434206801F08E
:102590006FF8002084F8940410BD03EBC301890098
:1025A00010310144043103EBC30200EB820201202D
:1025B0005075E1E7012070470220EDE708B511F002
:1025C000800F0CD101F00F0101EBC101890001F571
:1025D000147101440431006800F046FE08BD01F0AA
:1025E0000F0101EBC1018900103101440431F2E710
:1025F0002DE9F04F83B004460568284601F0C1F884
:1026000010B103B0BDE8F08F8046206801F08AF871
:102610000028F6D005F500639B46D5F80838C3F3CB
:102620000D23C4F8D434206801F07CF810F0020FB8
:1026300004D02268536903F002035361206801F05B
:1026400071F810F0100F16D02268936923F0100370
:1026500093612E6A06F00F031F4606F4F013B3F5DC
:10266000802F6BD0B3F5402F00F08E8022689369E5
:1026700043F010039361206801F054F810F4002F28
:1026800040F09880206801F04DF810F4802F40F061
:102690000281206801F046F80028C0F28581206898
:1026A00001F040F810F4006F0AD0DBF8083013F0A6
:1026B000010F40F093812268536903F40063536172
:1026C000206801F02FF810F0006F15D022685369D0
:1026D00003F00063536194F8CC34002B40F0828106
:1026E000012184F8CC1423685B6DC3F38303C4F821
:1026F000D034204600F0D4FA206801F013F810F42A
:10270000805F40F07381206801F00CF810F4005FE6
:1027100040F0CB81206801F005F810F0080F40F080
:10272000DC81206800F0FEFF10F0800F00F0EF81E8
:10273000AB6923F08003AB610126D8E147F6F07363
:102740001E4293D033090093FA00019207EBC703AE
:1027500004EB8301C6F30A120E46D1F86012284634
:1027600000F036FFD6F86022009BC3F30A031A4438
:10277000C6F86022D6F86812019A3A4404EB820245
:102780000B44C2F8683271E7082204F29C412846E3
:1027900000F01EFF07EBC70304EB8303D3F86812B6
:1027A000C6F30A1307EBC70204EB82020B44C2F81C
:1027B00068325BE7206800F0B9FF0646474635E01F
:1027C000394605EB47130122C3F8082B2046FFF7D3
:1027D000E3FC3BE0394605EB47130822C3F8082B1E
:1027E0002046FFF75DFD34E007EBC70304EB8303EE
:1027F00093F85732012B42D005EB47130222C3F85E
:10280000082B19F0200F04D005EB47132022C3F842
:10281000082B19F4005F05D005EB47134FF4005265
:10282000C3F8082B3B4601331F467608002E3FF4C1
:1028300029AF16F0010FF5D0FBB29A461946206871
:1028400000F084FF814610F0010FB9D119F0080F94
:10285000C0D119F0100F04D005EB47131022C3F8B4
:10286000082B19F0020FCCD06B6913F0800FBBD08E
:10287000DBF8043043F48063CBF80430B4E707EBB3
:10288000C70304EB8303002283F8572251462046F6
:10289000FEF712FDB0E7206800F050FF0646C14683
:1028A00025E000992046FEF7C3FC1AF0080F04D07B
:1028B00005EB49130822C3F808291AF0100F04D0B9
:1028C00005EB49131022C3F808291AF0400F04D071
:1028D00005EB49134022C3F808291AF0020F42D130
:1028E0001AF0800F5BD14B46013399467608002ED3
:1028F0003FF4CFAE16F0010FF5D05FFA89F30093E5
:102900001946206800F02BFF824610F0010FCCD052
:10291000484609F00F02012101FA02F2DBF83430D7
:1029200023EA0203CBF8343005EB4913C3F8081946
:10293000A3798B42B5D109EBC90304EB83031A6A6F
:10294000D9690A441A620028ABD109EBC90304EB28
:1029500083035B6A002BA4D104F29C42012120680E
:1029600000F052FF9DE74946284600F08FFA09EB38
:10297000C90304EB8303DB7D012B05D005EB491371
:102980000222C3F80829ABE709EBC90304EB830370
:102990000022DA7500992046FEF794FCEEE74946DE
:1029A0002046FFF7EAFA9EE7DBF8043023F0010344
:1029B000CBF8043094F8CC34012B08D02046FEF735
:1029C00075FC2268536903F00043536167E60021F8
:1029D00084F8CC14204600F063F9F2E72046FEF7B5
:1029E0004DFC68E62046FEF749FC85E6DBF804303E
:1029F00023F00103CBF804301021206800F046FAE0
:102A00001CE0404605EB48134FF67F31C3F8081928
:102A1000D3F8002922F40012C3F80029C3F8081BD8
:102A2000D3F8002B22F40012C3F8002BD3F8002BAC
:102A300042F00062C3F8002B431C984623794345BB
:102A4000DFD8DBF81C3043F00113CBF81C30E37BFC
:102A5000EBB1DBF8843043F00B03CBF88430DBF8C8
:102A6000443043F00B03CBF84430D5F8003823F45E
:102A7000FE63C5F8003804F29C42A179206800F09A
:102A8000C3FE2268536903F4805353613BE6DBF8CD
:102A9000142042F22B031343CBF81430DBF8103030
:102AA00043F00B03CBF81030DFE7206800F09EFE08
:102AB000206800F007FBE071266801F009FC014680
:102AC000E279304600F064F92046FEF7C2FB226846
:102AD000536903F4005353611CE62046FEF7B3FB31
:102AE0002268536903F0080353611AE6013623791B
:102AF000B3420CD906EBC60304EB830393F85732B9
:102B0000012BF3D1F1B22046FFF758FDEEE7206824
:102B100000F008FE10F4801F25D1206800F002FEAE
:102B200010F4001F5AD0012326E001362379B34266
:102B30001BD905EB4613D3F8002906EBC60304EBBB
:102B400083031B7E012BF0D1002AEEDA06EBC603CD
:102B500004EB83030122DA7566F07F01C9B22046D7
:102B6000FFF72CFDE1E70126E0E72268536903F453
:102B700080135361D1E7013322799A4229D905EBB9
:102B80004312D2F8001B03EBC30204EB820292F85B
:102B90005822012AEFD10029EDDAD4F8D42482EAB0
:102BA000114212F0010FE6D103EBC30204EB8202E3
:102BB000012182F85712AA6942F08002AA616A696B
:102BC00012F0800FD7D1DBF8043043F40073CBF858
:102BD00004302268536903F400135361206800F045
:102BE000A1FD10F0804F10D1206800F09BFD10F087
:102BF000040F3FF406AD23685D6815F0040F0DD196
:102C0000226853682B435360FBE42046FEF760FBC9
:102C10002268536903F080435361E5E72046FEF7DD
:102C20005DFBEDE700B596460268506A21B940EABF
:102C30000E409062002000BD8C46936A00EB13406A
:102C4000002308E003F1400102EB8101496800EB39
:102C500011400133DBB20CF1FF318B42F2D340EA79
:102C60000E400CF13F0102EB81025060E2E7036885
:102C70005962002070470000034602680121C0F835
:102C8000D814002083F8CC04936943F00063936167
:102C9000516D024B0B435365704700BF030000109A
:102CA000704782B000230193019B01330193019B84
:102CB000B3F1706F15D80369002BF5DA0023019387
:102CC000036943F001030361019B01330193019BFD
:102CD000B3F1706F08D8036913F0010FF4D100202D
:102CE00000E0032002B070470320FBE784B010B57A
:102CF000044603A880E80E009DF81130012B1FD177
:102D0000A36B23F48033A363E2681F4B1340E3609B
:102D1000E36823F44013E3609DF81830012B0AD0D8
:102D20002046FFF7BEFF9DF80E30012B1CD0BDE8FA
:102D3000104004B07047E36843F48013E360EFE7AA
:102D4000E36843F04003E3602046FFF7AAFF9DF8E5
:102D5000153023B9A36B43F48033A363E3E7A36B7C
:102D600023F48033A363DEE7E36D9BB2E365E26D9A
:102D7000064B1343E365A36843F00603A360A3680F
:102D800043F02003A360D2E7BFFFBDFF0000EE03C6
:102D9000022A0AD00922C36823F47053C360C368AF
:102DA00043EA8223C36000207047204B0B44204A33
:102DB000934229D91F4B0B441F4A934226D91F4BDC
:102DC0000B441F4A934223D91E4B0B441E4A934285
:102DD00020D31E4B0B441E4A93421DD91D4B0B445E
:102DE0001D4A93421AD31D4B0B441D4A934217D3DD
:102DF0001C4B0B441C4A934214D31C4B0B441C4ADF
:102E0000934211D20722C6E70F22C4E70E22C2E77F
:102E10000D22C0E70C22BEE70B22BCE70A22BAE76C
:102E20000922B8E70822B6E70622B4E7405327FF95
:102E3000FF340C00401E1BFF3F420F0000DC0BFF65
:102E40007F4F1200808CF9FE20D6130060B6E5FE9D
:102E50005FE3160000D3CEFE40771B00C05BB3FEDD
:102E6000C091210000CA91FE20753800E05459FE3F
:102E7000E09C4100836843F00103836000207047B9
:102E8000836823F0010383600020704782B0002331
:102E90000193019B01330193019BB3F1706F15D82E
:102EA0000369002BF5DA00230193890141F0200129
:102EB0000161019B01330193019BB3F1706F08D84D
:102EC000036913F0200FF4D1002000E0032002B0CA
:102ED00070470320FBE782B000230193019B01337D
:102EE0000193019BB3F1706F13D80369002BF5DADE
:102EF0000023019310230361019B01330193019B84
:102F0000B3F1706F08D8036913F0100FF4D10020EB
:102F100000E0032002B070470320FBE7D0F8003840
:102F20001943C0F8001800207047000084B070B545
:102F3000044605A880E80E00002306E003F14002E5
:102F400004EB82020021516001330E2BF6D99DF86B
:102F50001E5005BBD4F8043843F00203C4F804380B
:102F6000A36B23F40013A363236843F0400323609F
:102F7000236843F0800323600023C4F8003E9DF8DB
:102F80001930012B11D19DF817304BB91946204645
:102F9000FFF7C4FF0DE0A36B43F40013A363EBE75B
:102FA00001212046FFF7BAFF03E003212046FFF787
:102FB000B5FF10212046FFF769FF064608B101233F
:102FC0001E462046FFF787FF08B101231E4604F581
:102FD000006C0023CCF81030CCF81430CCF81C3046
:102FE0000DE04FF09040C2F8000902E00020C2F866
:102FF000000900220A614FF67F328A6001339DF892
:10300000141099420ED904EB431202F51061D2F864
:1030100000090028EADA002BE3D14FF00060C2F883
:103020000009E6E700230AE0CBB14FF0904EC2F86A
:1030300000EB002202614FF67F3282600133994239
:1030400012D904EB431202F53060D2F800EBBEF166
:10305000000FE9DB4FF0000EC2F800EBE9E74FF09C
:10306000006EC2F800EBE4E7DCF8103023F4807364
:10307000CCF810300023A3616FF0804363619DF8AA
:1030800016301BB9A36943F01003A361A2690B4B6F
:103090001343A3619DF81A301BB1A36943F00803E1
:1030A000A361012D04D03046BDE8704004B07047E4
:1030B000A269034B1343A361F5E700BF00383C80CE
:1030C00004000040D0F8083813F0060305D0062BA2
:1030D00018BF022B03D102207047002070470F2039
:1030E0007047000010B591F800C04B78012B22D03A
:1030F00000F5006ED0F81C380CF00F02012404FA21
:1031000002F243EA0243C0F81C3800EB4C10D0F83E
:10311000003B13F4004F0CD1D0F8002B8B68C3F3A5
:103120000A03097943EA81431A43154B1343C0F854
:10313000003B002010BD00F5006ED0F81C280CF0FC
:103140000F03012404FA03F39BB21343C0F81C38A5
:1031500000EB4C10D0F8003913F4004FE9D1D0F84F
:1031600000298B68C3F30A03097943EA814343EAE0
:103170008C531A43024B1343C0F80039D9E700BF00
:103180000080001000B50B784A78012A25D000EBAA
:103190004313D3F8002B002A54DBD0F83CE80A781C
:1031A00002F00F024FF0010C0CFA02F22EEA02427A
:1031B000C0F83C28D0F81C28097801F00F010CFA5F
:1031C00001FC22EA0C42C0F81C28D3F8001B244A58
:1031D0000A40C3F8002B002000BD00EB4313D3F8D6
:1031E0000029002A21DBD0F83CE80A7802F00F021F
:1031F0004FF0010C0CFA02F292B22EEA0202C0F871
:103200003C28D0F81C28097801F00F010CFA01FCC9
:103210001FFA8CFC22EA0C02C0F81C28D3F8001913
:10322000104A0A40C3F80029D5E7D3F8002942F034
:103230000062C3F80029D3F8002942F08042C3F8A5
:103240000029D0E7D3F8002B42F00062C3F8002B2E
:10325000D3F8002B42F08042C3F8002B9DE700BF5B
:103260000078F3EF007833EC82B00246002301933C
:103270004878012809D00B7802EB4313D3F8000BF0
:1032800000282DDB002002B070470B7802EB4313BF
:10329000D3F800C9BCF1000F01DB0020F3E7D3F83D
:1032A00000C94CF0006CC3F800C90B7802EB431363
:1032B000D3F800C94CF0804CC3F800C9019B01331E
:1032C0000193DDF804C042F210739C45DBD80B7803
:1032D00002EB4313D3F80039002BEFDB0020D2E7D9
:1032E000D3F8000B40F00060C3F8000B0B7802EB42
:1032F0004313D3F8000B40F08040C3F8000B019B50
:1033000001330193019842F21073984208D80B7868
:1033100002EB4313D3F8003B002BF0DB0020B2E7B5
:103320000120B0E710B504469DF8080078B90333D2
:103330004FEA930E844608E004EB023303F5805312
:1033400051F8040B18600CF1010CF445F4D3002083
:1033500010BD000070B582B016460A784B78012B7C
:1033600031D000EB421E0EF53063D3F810C06FF37E
:10337000120CC3F810C0D3F810C06FF3DC4CC3F8C4
:1033800010C0002A40F0E6800A690AB18A680A6122
:103390008A680A621C69C2F3120222431A611A691E
:1033A00042F400221A61012E00F0F7800B79012B04
:1033B00000F0F980DEF8003B43F00443CEF8003B18
:1033C000002002B070BD0B697BBB00EB4213D3F849
:1033D00010E96FF3DC4EC3F810E9D3F810E94EF4AE
:1033E000002EC3F810E9D3F810E96FF3120EC3F8FA
:1033F00010E9012E6CD000EB4212D2F8003943F0F4
:103400000443C2F800390B79012B00F08A800B6964
:10341000002BD5D0D0F83438097801F00F01012203
:103420008A401343C0F83438CAE700EB421303F56F
:103430001063D3F810E06FF3120EC3F810E0D3F866
:1034400010E06FF3DC4EC3F810E0B2B9D1F808E039
:103450000C69744501D9C1F810E0D3F810E04EF4BE
:10346000002EC3F810E0D3F810E00C69C4F3120C7E
:103470004EEA0C0EC3F810E0BBE7D1F808C00C69A7
:1034800004EB0C0E0EF1FF3EBEFBFCFED3F810C0A9
:103490001FFA8EF425464D4C04EACE4E4CEA0E0E31
:1034A000C3F810E091F804E0BEF1010FDBD1D3F8CE
:1034B00010E02EF0C04EC3F810E0D3F810C04FEA71
:1034C000457E0EF0C04E4CEA0E0EC3F810E0CAE77F
:1034D000CB691BB100EB421CCCF814390B79012BE2
:1034E00008D000EB4212D2F8003943F00443C2F88E
:1034F000003965E7D0F8083813F4807F08D100EB75
:103500004211D1F8003943F00053C1F80039E8E71F
:1035100000EB4211D1F8003943F08053C1F8003973
:10352000DFE7D0F8083813F4807F0CD1D2F80039E7
:1035300043F00053C2F8003900960B8A0A78C96834
:10354000FFF7F0FE3CE7D2F8003943F08053C2F8B1
:103550000039F1E70A6952B91A698C68C4F3120498
:1035600022431A611A6942F400221A611BE78C682F
:103570002244013AB2FBF4F292B202FB04F40C6270
:103580001C69124D05EAC24222431A611A690C6A8B
:10359000C4F3120422431A6105E7CA68002A3FF403
:1035A00005AF5A6102E7D0F8083813F4807F06D1DE
:1035B000DEF8003B43F00053CEF8003BFAE6DEF8BD
:1035C000003B43F08053CEF8003BF3E60000F81FC9
:1035D00000B5844608464FEA920E02F0030200232B
:1035E00005E00CF58051096840F8041B0133734570
:1035F000F7D37AB10CF5805CDCF800C00021CBB2C7
:10360000DB002CFA03F300F8013B0131013A92B2DE
:10361000002AF4D100BD0B784A78012A14D000EBBF
:103620004310D0F8002B002A06DB2BB1D0F8003B6A
:1036300023F08043C0F8003BD0F8003B43F4001374
:10364000C0F8003B0020704700EB4310D0F8002981
:10365000002A06DB2BB1D0F8003923F08043C0F8F4
:103660000039D0F8003943F40013C0F80039E9E715
:103670000B784A78012A0ED000EB4310D0F8003BBB
:1036800023F40013C0F8003B0B79023BDBB2012BA3
:1036900015D90020704700EB4310D0F8003923F40F
:1036A0000013C0F800390B79023BDBB2012BF0D8D4
:1036B000D0F8003943F08053C0F80039E9E7D0F87A
:1036C000003B43F08053C0F8003BE2E7D0F80038FD
:1036D00023F4FE63C0F80038D0F80038090101F483
:1036E000FE610B43C0F8003800207047D0F8003E60
:1036F00023F00303C0F8003ED0F8043823F002039F
:10370000C0F8043800207047D0F8003E23F00303CF
:10371000C0F8003ED0F8043843F00203C0F8043883
:10372000002070474269806910407047D0F818380F
:1037300000F50060C0691840000C7047D0F81838D8
:1037400000F50060C069184080B2704700EB41117D
:10375000D1F8082B00F50060406910407047D0F8A0
:103760001028D0F8343801F00F0C23FA0CF3DB01E9
:10377000DBB2134300EB411000F510608068184085
:103780007047406900F00100704738B50546C368CE
:1037900023F0C043C360012913D019BBC36843F0B1
:1037A0008043C3600C460A2003F006FA0A34284618
:1037B000FFF7E7FF08B1C72CF5D9C82C14D00020BB
:1037C00038BDC36843F00053C36000240A2003F0EF
:1037D000F3F90A342846FFF7D4FF0128EDD0C72CAF
:1037E000F4D9EAE70120EBE70120E9E7D0F8003956
:1037F0006FF30A03C0F80039D0F8043843F480733B
:10380000C0F80438002070478C46016C144B994274
:1038100003D9D0F8003B002B17DB0021C0F8101BA8
:10382000D0F8101B41F40021C0F8101BD0F8101B79
:1038300041F01801C0F8101BD0F8101B41F0C04136
:10384000C0F8101BBCF1010F01D000207047C0F878
:10385000142BD0F8003B43F08023C0F8003BF4E782
:103860000A30544F002800F0D58238B5044603686A
:1038700013F0010F25D0964A136903F03803926ABA
:10388000102B15D0182B0FD06368B3F5803F3FD0B5
:10389000002B53D18E4B1A6822F480321A601A68BA
:1038A00022F480221A6038E002F00302022AEBD1EF
:1038B000874B1B6813F4003F03D06368002B00F0B4
:1038C000AB82236813F0020F00F08880804A1369EE
:1038D000926A13F038035AD0182B55D0E368002BA6
:1038E00000F0A9807A490A6822F0190213430B609C
:1038F00003F05CF90546764B1B6813F0040F40F0AB
:10390000918003F053F9401B0228F4D903208AE286
:103910006F4A136843F48033136063682BB303F07A
:1039200045F905466A4B1B6813F4003FC9D103F003
:103930003DF9401B6428F5D9032074E2B3F5A02FAC
:1039400009D0634B1A6822F480321A601A6822F494
:1039500080221A60E1E75E4B1A6842F480221A6006
:103960001A6842F480321A60D7E703F01FF905465F
:10397000574B1B6813F4003FA3D003F017F9401B0B
:103980006428F5D903204EE212F0030FA6D1504B64
:103990001B6813F0040F03D0E368002B00F03E8295
:1039A0004B4A136823F01903E1680B43136003F0DB
:1039B000FDF80546464B1B6813F0040F06D103F0D3
:1039C000F5F8401B0228F5D903202CE2404A536841
:1039D00023F0FE43216943EA01635360236813F037
:1039E000100F51D03A4A136903F03803926A082B3A
:1039F00039D0182B33D0E369002B6BD0344A1368CD
:103A000043F08003136003F0D1F80546304B1B6888
:103A100013F4807F53D103F0C9F8401B0228F5D975
:103A2000032000E22A4A536823F0FE43216943EA57
:103A300001635360D2E7264A136823F00103136041
:103A400003F0B4F80546224B1B6813F0040FC5D0F1
:103A500003F0ACF8401B0228F5D90320E3E102F0A3
:103A60000302012AC7D11A4B1B6813F4807F03D0CD
:103A7000E369802B40F0D481154AD36823F07C534E
:103A8000216A43EA0163D360236813F0080F49D029
:103A90006369002B32D00E4A536F43F00103536722
:103AA00003F084F805460A4B5B6F13F0020F39D11F
:103AB00003F07CF8401B0228F5D90320B3E1044A47
:103AC000D36823F07C53216A43EA0163D360DBE7C8
:103AD00000440258A54A136823F08003136003F0E2
:103AE00065F80546A14B1B6813F4807FCCD003F02A
:103AF0005DF8401B0228F5D9032094E19B4A536FDF
:103B000023F00103536703F051F80546974B5B6FB1
:103B100013F0020F06D003F049F8401B0228F5D934
:103B2000032080E1236813F0200F29D0A3699BB103
:103B30008E4A136843F48053136003F037F8054648
:103B40008A4B1B6813F4005F1AD103F02FF8401B57
:103B50000228F5D9032066E1844A136823F48053D0
:103B6000136003F023F80546804B1B6813F4005FD5
:103B700006D003F01BF8401B0228F5D9032052E1C0
:103B8000236813F0040F21D1636A002B00F04A81EF
:103B9000764A126902F03802182A00F0F180022BEE
:103BA00075D0724A136823F08073136002F0FEFF31
:103BB00004466E4B1B6813F0007F00F0DF8002F0BC
:103BC000F5FF001B0228F4D903202CE1684A136892
:103BD00043F48073136002F0E9FF0546644B1B68F1
:103BE00013F4807F06D102F0E1FF401B6428F5D971
:103BF000032018E1A368012B0AD00BBB5B4B1A6FA3
:103C000022F001021A671A6F22F004021A6704E018
:103C1000564A136F43F001031367A36833B302F0EE
:103C2000C5FF0546514B1B6F13F0020FACD102F0DC
:103C3000BDFF401B41F288339842F3D90320F2E0E4
:103C4000052B09D0494B1A6F22F001021A671A6F2F
:103C500022F004021A67E0E7444B1A6F42F00402B4
:103C60001A671A6F42F001021A67D6E702F09EFF48
:103C700005463E4B1B6F13F0020F85D002F096FFF6
:103C8000401B41F288339842F3D90320CBE0374AF6
:103C9000136823F08073136002F088FF0546334BEE
:103CA0001B6813F0007F06D002F080FF401B022843
:103CB000F5D90320B7E02D4B996A2E4A0A40A16A34
:103CC000E06A41EA00110A439A62226B013AC2F3A8
:103CD0000802616B0139490289B20A43A16B0139BB
:103CE000090401F4FE010A43E16B0139090601F000
:103CF000FE410A431A63DA6A22F00102DA625A6B61
:103D00006FF3CF02A16C42EAC1025A63DA6A22F071
:103D10000C02216C0A43DA62DA6A22F00202616C58
:103D20000A43DA62DA6A42F48032DA62DA6A42F428
:103D30000032DA62DA6A42F48022DA62DA6A42F047
:103D40000102DA621A6842F080721A6002F02EFFF5
:103D50000446064B1B6813F0007F0DD102F026FFCE
:103D6000001B0228F5D903205DE000BF0044025883
:103D7000004802580CFCFFFF002054E0002052E0F5
:103D800030498A6A086B012B4ED002F00303A16A06
:103D90008B424BD1C2F30512E36A9A4248D1C0F379
:103DA0000802236B013B9A4244D1C0F34622636B65
:103DB000013B9A4240D1C0F30642A36B013B9A42B9
:103DC0003CD1C0F30660E36B013B984238D11D4BF8
:103DD0005B6BC3F3CC03A26C9A4201D1002022E0BA
:103DE000184AD36A23F00103D36202F0DFFE0546CE
:103DF00002F0DCFEA842FBD0124A536B6FF3CF03F4
:103E0000A16C43EAC1035363D36A43F00103D36255
:103E1000002008E001207047012004E0012002E0BA
:103E2000012000E0184638BD0120FCE70120FAE738
:103E30000120F8E70120F6E70120F4E70120F2E78E
:103E40000120F0E700440258744B1B6903F038036B
:103E5000102B00F0DD80182B0FD0002B40F0DA8003
:103E60006E4B1B6813F0200F00F0D6806B4B1B6865
:103E7000C3F3C1036A48D8407047684B9A6A02F09E
:103E80000302D3F828C0CCF30510D96A01F0010170
:103E90005B6BC3F3CC0301FB03F307EE903AF8EE40
:103EA000677A1CF47C7F00F0B880012A4AD0022A8D
:103EB00074D0002A40F08F80584B1B6813F0200FFD
:103EC00023D056490A68C2F3C102554BD34007EECE
:103ED000103AF8EE476A07EE100AB8EE476A86EE27
:103EE000867A0B6BC3F3080306EE903AF8EE666A27
:103EF0009FED4C6A67EE867A76EEA77AF7EE006A57
:103F000077EEA67A27EE277A38E007EE100AF8EE69
:103F1000476A9FED456A86EE267A404B1B6BC3F3DA
:103F2000080306EE903AF8EE666A9FED3E6A67EE89
:103F3000867A76EEA77AF7EE006A77EEA67A27EE13
:103F4000277A1BE007EE100AF8EE476A9FED376A02
:103F500086EE267A314B1B6BC3F3080306EE903ACC
:103F6000F8EE666A9FED2F6A67EE867A76EEA77A9C
:103F7000F7EE006A77EEA67A27EE277A274B1B6BBF
:103F8000C3F34623013307EE903AF8EE677AC7EEA3
:103F9000276AFCEEE67A17EE900A704707EE100AE1
:103FA000F8EE476A9FED226A86EE267A1B4B1B6B62
:103FB000C3F3080306EE903AF8EE666A9FED196ABD
:103FC00067EE867A76EEA77AF7EE006A77EEA67A43
:103FD00027EE277AD2E707EE100AF8EE476A9FED40
:103FE000136A86EE267A0D4B1B6BC3F3080306EEAD
:103FF000903AF8EE666A9FED0B6A67EE867A76EE87
:10400000A77AF7EE006A77EEA67A27EE277AB5E769
:1040100008487047084870470148704700440258F4
:104020000090D003000000390024744C0024744A2E
:10403000001BB74B00366E0100093D00002800F060
:10404000328170B50D4604469B4B1B6803F00F038D
:104050008B420BD2984A136823F00F030B43136073
:10406000136803F00F038B4240F01F81236813F0A5
:10407000040F0CD02269914B9B6903F070039A42A4
:1040800005D98E498B6923F070031A438A6123682E
:1040900013F0080F0CD06269884BDB6903F07003E2
:1040A0009A4205D98549CB6923F070031A43CA6146
:1040B000236813F0100F0CD0A269804BDB6903F466
:1040C000E0639A4205D97D49CB6923F4E0631A4342
:1040D000CA61236813F0200F0CD0E269774B1B6A8A
:1040E00003F070039A4205D974490B6A23F07003F8
:1040F0001A430A62236813F0020F0CD0E2686F4B78
:104100009B6903F00F039A4205D96C498B6923F030
:104110000F031A438A61236813F0010F41D0674AE5
:10412000936923F47063A1680B4393616368022B66
:104130000AD0032B27D0012B2CD0604A126812F032
:10414000040F06D10120ADE0126812F4003F00F028
:10415000AE805A490A6922F0070213430B6102F04C
:1041600025FD0646554B1B6903F038036268B3EB27
:10417000C20F16D002F01AFD801B41F2883398421C
:10418000F0D903208EE04D4A126812F0007FE0D192
:10419000012087E0494A126812F4807FD9D10120BA
:1041A00080E0236813F0020F0CD0E268434B9B6958
:1041B00003F00F039A4205D240498B6923F00F03A5
:1041C0001A438A613C4B1B6803F00F03AB420AD9C8
:1041D000394A136823F00F032B431360136803F06D
:1041E0000F03AB4265D1236813F0040F0CD0226992
:1041F000324B9B6903F070039A4205D22F498B69B9
:1042000023F070031A438A61236813F0080F0CD05F
:1042100062692A4BDB6903F070039A4205D2274991
:10422000CB6923F070031A43CA61236813F0100F9F
:104230000CD0A269214BDB6903F4E0639A4205D2FA
:104240001E49CB6923F4E0631A43CA61236813F063
:10425000200F0CD0E269194B1B6A03F070039A42DD
:1042600005D216490B6A23F070031A430A62FFF75E
:10427000EBFD12498B69C3F30323114AD35C03F0AE
:104280001F03D8408B6903F00F03D35C03F01F03B7
:1042900020FA03F30B4A13600B4B18600B4B1868A2
:1042A000FCF73EFE70BD012070470120FAE70120B7
:1042B000F8E70120F6E700BF002000520044025852
:1042C00040D5000870000020740000206C00002021
:1042D00008B5FFF7B9FD0B4A9369C3F303230A49F5
:1042E000CB5C03F01F0320FA03F3926902F00F0284
:1042F000885C00F01F0023FA00F0044A1060044AB2
:10430000136008BD0044025840D50008700000202A
:104310007400002008B5FFF7DBFF054BDB69C3F332
:104320000213044AD35C03F01F03D84008BD00BF4A
:104330000044025840D5000808B5FFF7C9FF054BF7
:10434000DB69C3F30223044AD35C03F01F03D840A4
:1043500008BD00BF0044025840D500083F23036059
:10436000114B1A6902F0070242609A6902F4706206
:1043700082609A6902F00F02C2609A6902F07002CC
:104380000261DA6902F070024261DA6902F4E06205
:1043900082611B6A03F07003C361044B1B6803F066
:1043A0000F030B60704700BF00440258002000520A
:1043B000404B9B6A03F00303032B79D070B505468D
:1043C0000E463C4A136823F08063136002F0EEFB54
:1043D0000446384B1B6813F0006F06D002F0E6FB72
:1043E000031B022BF5D9032070BD324B9A6A22F4CD
:1043F0007C32296842EA01329A626A68013AC2F361
:104400000802A9680139490289B20A43E9680139F9
:10441000090401F4FE010A4329690139090601F082
:10442000FE410A439A63DA6A22F0C00269690A43CC
:10443000DA62DA6A22F02002A9690A43DA62DA6AE9
:1044400022F01002DA62DA6B6FF3CF02E96942EA16
:10445000C102DA63DA6A42F01002DA62C6B9154ABA
:10446000D36A43F40023D362124A136843F0806393
:10447000136002F09BFB04460E4B1B6813F0006FA9
:1044800014D102F093FB001B0228F5D90320ABE7FF
:10449000012E05D0074AD36A43F40013D362E3E741
:1044A000044AD36A43F48013D362DDE700209BE71C
:1044B0000120704700440258404B9B6A03F00303FD
:1044C000032B79D070B505460E463C4A136823F09D
:1044D0008053136002F06AFB0446384B1B6813F0EC
:1044E000005F06D002F062FB031B022BF5D903200C
:1044F00070BD324B9A6A22F07C72296842EA0152FE
:104500009A626A68013AC2F30802A968013949024D
:1045100089B20A43E9680139090401F4FE010A433A
:1045200029690139090601F0FE410A431A64DA6A71
:1045300022F4406269690A43DA62DA6A22F400729C
:10454000A9690A43DA62DA6A22F48072DA625A6C82
:104550006FF3CF02E96942EAC1025A64DA6A42F4AF
:104560008072DA62C6B9154AD36A43F48003D36213
:10457000124A136843F08053136002F017FB04469D
:104580000E4B1B6813F0005F14D102F00FFB001BF1
:104590000228F5D90320ABE7012E05D0074AD36ADC
:1045A00043F08073D362E3E7044AD36A43F4000321
:1045B000D362DDE700209BE70120704700440258EA
:1045C000F8B50446036813F0006F2FD0436EB3F5BF
:1045D000001F25D015D8E3B1B3F5801F0ED10221FD
:1045E0000830FFF7E5FE0546A5BB954A136D23F499
:1045F0004013616E0B431365002619E00126354612
:1046000016E0B3F5401F01D10025EEE7012635463F
:104610000EE08B4AD36A43F40033D3620025E4E70B
:1046200002212830FFF748FF0546DDE70026354622
:10463000236813F4807F2ED0A36D022B23D00ED8D5
:104640009BB1012B08D1002104F10800FFF7B0FE57
:1046500005460FE02E46EBE7012635461BE0033BFF
:10466000012B07D90126354615E0754AD36A43F474
:104670000033D36275B9724A136D23F00703A16D3D
:104680000B43136507E0002104F12800FFF714FF36
:104690000546EFE72E46236813F4806F2DD0D4F83B
:1046A000A430B3F5800F3DD00DD8C3B1B3F5001FD2
:1046B00006D1002104F10800FFF77AFE054613E059
:1046C0000126354619E0B3F5000F0DD0B3F5200FE4
:1046D0000AD0B3F5C00F07D0012635460DE0584A81
:1046E000D36A43F40033D3621DBB554A936D23F460
:1046F0006003D4F8A4100B439365236813F4006F90
:1047000037D0D4F8A830B3F1007F5ED016D80BB301
:10471000B3F1807F0FD1002104F10800FFF748FEBC
:1047200005461CE0002104F12800FFF7C5FE054600
:10473000DAE72E46E1E7012635461AE0B3F1806F4D
:104740000DD0B3F1A06F0AD0B3F1407F07D001269E
:1047500035460EE03A4AD36A43F40033D362002D63
:104760003AD1374A936D23F0E063D4F8A8100B4395
:104770009365236813F0007F13D0E36C202B35D0B2
:104780002FD833B1102B29D12D4AD36A43F40033EB
:10479000D36295BB2A4AD36C23F03003E16C0B4300
:1047A000D364236813F4805F4DD0E36DB3F5005FED
:1047B0003FD027D87BB3B3F5805F20D1002104F12F
:1047C0000800FFF7F5FD05462AE0002104F1280066
:1047D000FFF772FE0546C2E72E46CAE701263546B8
:1047E000DFE7302BD5D001263546DAE7022104F188
:1047F0000800FFF7DDFD0546CBE72E46D1E7012691
:10480000354620E0B3F5405F0AD0B3F5804F07D0BE
:104810000126354617E00A4AD36A43F40033D362CF
:1048200085B9074A136D23F4E043E16D0B4313652B
:1048300009E0002104F12800FFF73EFE0546EFE7FE
:10484000004402582E46236813F4005F17D0236EED
:10485000B3F5003F51D044D843B1B3F5803F3DD1CB
:10486000012104F10800FFF7A3FD0546002D4BD1FF
:10487000324A136D23F4E023216E0B431365236842
:1048800013F4804F19D0D4F8AC30B3F1005F4CD0A2
:104890003FD843B1B3F1805F38D1012104F1080062
:1048A000FFF786FD0546002D46D1244A936D23F07F
:1048B000E043D4F8AC100B439365236813F4004F26
:1048C0004DD0E36EB3F1805F3AD0B3F1005F00F0FA
:1048D0007181002B39D00126354640E0012635464E
:1048E000CDE7B3F5802FC1D0B3F5A02FBED0B3F57F
:1048F000403FBBD001263546C1E7012104F1280025
:10490000FFF7DAFD0546B1E72E46B8E70126354642
:10491000D3E7B3F1804FC6D0B3F1A04FC3D0B3F10A
:10492000405FC0D001263546C7E7012104F12800C9
:10493000FFF7C2FD0546B6E72E46BEE70044025823
:10494000AA4AD36A43F40033D362002D40F0398180
:10495000A64A136D23F04053E16E0B4313652368A1
:1049600013F0807F18D0A36C022B00F0358100F289
:104970002D813BB1012B40F026819C4AD36A43F440
:104980000033D362002D40F02E81984AD36C23F07F
:104990000303A16C0B43D364236813F4800F40F02E
:1049A0002781236813F0010F19D0A36F102B00F09B
:1049B000928100F2848143B1082B40F07D81012176
:1049C00004F10800FFF7F4FC0546002D40F08A8151
:1049D000864A536D23F03803A16F0B435365236858
:1049E00013F0020F19D0636F022B00F0878100F2E1
:1049F0007E8143B1012B40F07781012104F1080051
:104A0000FFF7D6FC0546002D40F07F81774A536DB5
:104A100023F00703616F0B435365236813F0040F02
:104A20001BD0D4F89030022B00F07B8100F2728111
:104A300043B1012B40F06B81012104F10800FFF725
:104A4000B7FC0546002D40F07381684A936D23F052
:104A50000703D4F890100B439365236813F0200FDD
:104A60001DD0D4F88C30B3F1005F00F0758100F2F6
:104A700064814BB1B3F1805F40F05C81002104F1AF
:104A80000800FFF795FC0546002D40F06C81574A61
:104A9000536D23F0E043D4F88C100B435365236827
:104AA00013F0400F1DD0D4F89830B3F5006F00F02C
:104AB0006E8100F25D814BB1B3F5806F40F055819E
:104AC000002104F10800FFF773FC0546002D40F0BB
:104AD0006581464A936D23F4E053D4F898100B4354
:104AE0009365236813F0800F1DD0D4F89C30B3F584
:104AF000804F00F0678100F256814BB1B3F5005F43
:104B000040F04E81002104F10800FFF751FC0546FA
:104B1000002D40F05E81354A936D23F46043D4F854
:104B20009C100B439365236813F0080F0DD0D4F845
:104B30008030B3F5805F00F04E812C4A536D23F432
:104B40004053D4F880100B435365236813F0100FC3
:104B50000DD0D4F89430B3F5807F00F04681234A1D
:104B6000936D23F44073D4F894100B43936523683A
:104B700013F4002F00F04E81D4F8A030B3F5803F3D
:104B800000F03D81B3F5003F08D0002B40F03E819E
:104B9000194604F10800FFF70BFC0546002D40F014
:104BA0003881124A936D23F44033D4F8A0100B439C
:104BB00093652FE1012104F10800FFF7F9FB054699
:104BC000C3E62E46CBE601263546E5E6032B3FF449
:104BD000D9AE01263546DFE6022104F10800FFF7D1
:104BE000E7FB0546CEE62E46D6E600BF0044025857
:104BF000AD4A136843F48073136001F0D7FF074692
:104C0000A94B1B6813F4807F05D101F0CFFFC01BB7
:104C10006428F5D90325002D4AD1A44B1B6FD4F885
:104C2000B020534013F4407F0CD0A04B1A6F22F4F5
:104C30004072196F41F480311967196F21F4803186
:104C400019671A67D4F8B030B3F5807F15D08DBBE3
:104C5000D4F8B03003F44072B2F5407F1ED0934ACE
:104C6000136923F47C53136190490B6FD4F8B0207F
:104C7000C2F30B0213430B6793E601F097FF07465D
:104C80008A4B1B6F13F0020FE1D101F08FFFC01BA5
:104C900041F288339842F3D90325D8E78348026963
:104CA00022F47C52824901EA131313430361DBE7C8
:104CB0002E4676E62E4674E6012635468FE6202BF4
:104CC0003FF483AE282B3FF480AE182B3FF47DAE2B
:104CD0000126354683E6012104F12800FFF7ECFBAD
:104CE000054672E62E467AE60126354695E6033BF2
:104CF000022B7FF688AE012635468EE6012104F1AF
:104D00002800FFF7D9FB05467DE62E4685E60126FD
:104D10003546A2E6033B022B7FF694AE01263546CC
:104D20009BE6012104F12800FFF7C6FB054689E652
:104D30002E4692E601263546B1E6B3F1804F3FF4A8
:104D4000A3AEB3F1A04F3FF49FAEB3F1405F3FF489
:104D50009BAE01263546A2E6022104F12800FFF7AA
:104D6000ABFB054690E62E4699E601263546B8E6A9
:104D7000B3F5805F3FF4AAAEB3F5A05F3FF4A6AEF3
:104D8000B3F5406F3FF4A2AE01263546A9E60221F5
:104D900004F12800FFF790FB054697E62E46A0E6B3
:104DA00001263546BFE6B3F5004F3FF4B1AEB3F58B
:104DB000204F3FF4ADAEB3F5C04F3FF4A9AE01268E
:104DC0003546B0E6022104F12800FFF775FB0546E1
:104DD0009EE62E46A7E6022104F12800FFF76CFBB1
:104DE00000283FF4AAAE0126A7E6022104F128001C
:104DF000FFF762FB00283FF4B2AE0126AFE60221C6
:104E000004F12800FFF758FB0546C7E601263546A2
:104E100000E02E46236813F4802F24D0D4F8843089
:104E2000B3F5001F14D0B3F5401F07D0B3F5801FB2
:104E300015D11E4AD36A43F40033D36295B91B4A95
:104E4000536D23F44013D4F884100B4353650AE0E8
:104E5000012104F12800FFF72FFB0546EEE70126AC
:104E6000354600E02E46236813F4803F06D0236DBC
:104E700003B3B3F5803F2BD001263546236813F0EA
:104E8000005F2ED1236813F4003F44D0E36FB3F5E5
:104E9000807F32D02ED9B3F5007F33D0B3F5407F79
:104EA00030D0012637E000BF0048025800440258C5
:104EB000CFFFFF005F4AD36A43F40033D36275B972
:104EC0005C4AD36C23F48033216D0B43D364D5E764
:104ED000022104F10800FFF76BFA0546EFE72E46C2
:104EE000CCE7022104F12800FFF7E6FA0028C9D038
:104EF0000126C7E733B101260DE04E4AD36A43F4D9
:104F00000033D362002D5CD14A4A536D23F44073C1
:104F1000E16F0B435365236813F4801F06D0454AA5
:104F2000136D23F00043216F0B431365236813F4C3
:104F3000001F06D03F4A136D23F08073A16E0B4310
:104F40001365236813F0804F09D03A4B1A6922F495
:104F500000421A611A69D4F8B4100A431A6123682E
:104F6000002B06DA334AD36C23F04053616D0B43B8
:104F7000D364236813F4000F07D02E4A536D23F433
:104F80004003D4F888100B435365636813F0010F96
:104F900019D1636813F0020F1ED1636813F0040F78
:104FA00023D1636813F0080F28D1636813F0100F42
:104FB0002DD1636813F0200F32D106B1012630469F
:104FC000F8BD2E46A7E7002104F10800FFF7F0F92D
:104FD0000028DED00646DCE7012104F10800FFF7D7
:104FE000E7F90028D9D00646D7E7022104F10800E6
:104FF000FFF7DEF90028D4D00646D2E7002104F1FD
:105000002800FFF759FA0028CFD00646CDE7012146
:1050100004F12800FFF750FA0028CAD00646C8E776
:10502000022104F12800FFF747FA0028C5D0012625
:10503000C5E700BF0044025808B5FFF749F9054B22
:105040001B6AC3F30213044AD35C03F01F03D84066
:1050500008BD00BF0044025840D5000800B5794B98
:105060009A6AD3F828C0CCF3053ED96AC1F300117F
:10507000DB6BC3F3CC0301FB03F31CF47C3F00F0B8
:10508000DB8002F0030207EE903AF8EE677A012A1D
:105090004BD0022A00F09680002A40F0B080694B85
:1050A0001B6813F0200F23D066490A68C2F3C102BF
:1050B000654BD34007EE103AF8EE476A07EE10EA68
:1050C000B8EE476A86EE867A8B6BC3F3080306EE6A
:1050D000903AF8EE666A9FED5D6A67EE867A76EE44
:1050E000A77AF7EE006A77EEA67A27EE277A38E0FD
:1050F00007EE10EAF8EE476A9FED556A86EE267ACB
:10510000504B9B6BC3F3080306EE903AF8EE666AC9
:105110009FED4E6A67EE867A76EEA77AF7EE006A22
:1051200077EEA67A27EE277A1BE007EE10EAF8EE74
:10513000476A9FED486A86EE267A424B9B6BC3F323
:10514000080306EE903AF8EE666A9FED406A67EE55
:10515000867A76EEA77AF7EE006A77EEA67A27EEE1
:10516000277A384A936BC3F3462307EE903AF8EE5A
:10517000677AF7EE006A77EEA67A87EE276ABCEECA
:10518000C66A80ED006A936BC3F3064307EE903A5C
:10519000F8EE677A77EEA67A87EE276ABCEEC66AE3
:1051A00080ED016A936BC3F3066307EE903AF8EE65
:1051B000677A77EEA67AC7EE276AFCEEE66AC0ED5C
:1051C000026A00BD07EE10EAF8EE476A9FED226A18
:1051D00086EE267A1B4B9B6BC3F3080306EE903AD0
:1051E000F8EE666A9FED196A67EE867A76EEA77A20
:1051F000F7EE006A77EEA67A27EE277AB1E707EE98
:1052000010EAF8EE476A9FED136A86EE267A0D4B98
:105210009B6BC3F3080306EE903AF8EE666A9FEDC7
:105220000B6A67EE867A76EEA77AF7EE006A77EE7B
:10523000A67A27EE277A94E7002303604360836011
:10524000BFE700BF004402580090D00300000039BF
:105250000024744C0024744A001BB74B00B5794BF2
:105260009A6AD3F828C0CCF3055ED96AC1F300214D
:105270005B6CC3F3CC0301FB03F31CF07C7F00F0F9
:10528000DB8002F0030207EE903AF8EE677A012A1B
:105290004BD0022A00F09680002A40F0B080694B83
:1052A0001B6813F0200F23D066490A68C2F3C102BD
:1052B000654BD34007EE103AF8EE476A07EE10EA66
:1052C000B8EE476A86EE867A0B6CC3F3080306EEE7
:1052D000903AF8EE666A9FED5D6A67EE867A76EE42
:1052E000A77AF7EE006A77EEA67A27EE277A38E0FB
:1052F00007EE10EAF8EE476A9FED556A86EE267AC9
:10530000504B1B6CC3F3080306EE903AF8EE666A46
:105310009FED4E6A67EE867A76EEA77AF7EE006A20
:1053200077EEA67A27EE277A1BE007EE10EAF8EE72
:10533000476A9FED486A86EE267A424B1B6CC3F3A0
:10534000080306EE903AF8EE666A9FED406A67EE53
:10535000867A76EEA77AF7EE006A77EEA67A27EEDF
:10536000277A384A136CC3F3462307EE903AF8EED7
:10537000677AF7EE006A77EEA67A87EE276ABCEEC8
:10538000C66A80ED006A136CC3F3064307EE903AD9
:10539000F8EE677A77EEA67A87EE276ABCEEC66AE1
:1053A00080ED016A136CC3F3066307EE903AF8EEE2
:1053B000677A77EEA67AC7EE276AFCEEE66AC0ED5A
:1053C000026A00BD07EE10EAF8EE476A9FED226A16
:1053D00086EE267A1B4B1B6CC3F3080306EE903A4D
:1053E000F8EE666A9FED196A67EE867A76EEA77A1E
:1053F000F7EE006A77EEA67A27EE277AB1E707EE96
:1054000010EAF8EE476A9FED136A86EE267A0D4B96
:105410001B6CC3F3080306EE903AF8EE666A9FED44
:105420000B6A67EE867A76EEA77AF7EE006A77EE79
:10543000A67A27EE277A94E700230360436083600F
:10544000BFE700BF004402580090D00300000039BD
:105450000024744C0024744A001BB74B70B582B012
:10546000864600236CE0DEF808405D000320A8407B
:1054700024EA0004C868A8402043CEF80800DEF8FB
:10548000044024EA0C044868C0F30010984020430C
:10549000CEF8040066E0DC0808345EF8240003F06F
:1054A0000705AD004FF00F0C0CFA05FC20EA0C0CC0
:1054B0000869A84040EA0C004EF8240068E0092082
:1054C00000E0002000FA0CF028430234644D45F857
:1054D00024004FF0B0400468D04324EA02054E682F
:1054E00016F4801F01D042EA04054FF0B044256055
:1054F000646800EA04054E6816F4001F01D042EA11
:1055000004054FF0B0446560D4F8844000EA040517
:105510004E6816F4003F01D042EA04054FF0B04453
:10552000C4F88450D4F8804020404D6815F4803F82
:1055300001D042EA04004FF0B042C2F880000133CB
:105540000A6832FA03F000F088804FF0010C0CFA80
:1055500003FC1CEA0202F2D0486800F003000138A4
:10556000012880D9486800F0030003280BD0DEF83A
:105570000C405D000320A84024EA00048868A8408D
:105580002043CEF80C00486800F00300022882D0C7
:10559000DEF800005C004FF0030C0CFA04FC20EA7B
:1055A0000C0C486800F00300A04040EA0C00CEF864
:1055B0000000486810F4403FC1D02A48D0F8F440B9
:1055C00044F00204C0F8F440D0F8F40000F0020007
:1055D000019001989C08A51C214850F8255003F023
:1055E000030C4FEA8C0C0F2000FA0CF025EA0005A2
:1055F0001D4886453FF465AF00F5806086451ED0A6
:1056000000F5806086451CD000F5806086451AD084
:1056100000F58060864518D000F58060864516D07C
:1056200000F58060864514D000F58060864512D074
:1056300000F5006086453FF442AF0A2042E70120B2
:1056400040E702203EE703203CE704203AE705203C
:1056500038E7062036E7072034E702B070BD00BF08
:105660000004005800440258000002580AB1816149
:10567000704709048161704703682649264A9342AE
:1056800018BF8B422ED0183293422BD0183293423F
:1056900028D01832934225D01832934222D01832A3
:1056A00093421FD0183293421CD002F55672934297
:1056B00018D01832934215D01832934212D01832B3
:1056C00093420FD0183293420CD01832934209D033
:1056D0001832934206D01832934203D023F0FF03CE
:1056E000836511E0D9B210390C4AA2FB01C2C2F3A2
:1056F0000212DFF82CC01CF80220C2655F2905D910
:105700006FF3090304338365806D70476FF30903FA
:105710008365F9E71000024028000240ABAAAAAA5C
:1057200010D5000883699BB9836A012B0AD0022B2C
:1057300002D00BB100207047C36A13F0807F2ED1D6
:1057400000207047C36AB3F1C07F2AD000207047A1
:10575000B3F5005F0AD0836A022B2CD9032B2CD11E
:10576000C36A13F0807F2AD100207047836A022B1E
:1057700019D00AD8CBB1012B05D1C36A13F0807FB1
:1057800015D10020704700207047032B05D1C36A54
:10579000B3F1C07F0DD0002070470020704701207A
:1057A0007047012070470120704701207047012099
:1057B000704701207047012070470020704701208A
:1057C0007047000003682149214A934218BF8B4269
:1057D00027D01432934224D01432934221D0143271
:1057E00093421ED0143293421BD01432934218D0ED
:1057F0001432934215D0DAB2103A1649A1FB0212C4
:10580000120915491944A8291ED9144B13449B00A9
:105810000366134B436602F01F0201239340836625
:105820007047DBB2083B0F4AA2FB03230E4A02EB90
:105830001312920002660D4A4266C3F3041301225A
:1058400002FA03F3836670470832DEE70854025811
:105850001C540258ABAAAAAAF0FBFDBF008200109C
:1058600080080240CDCCCCCC00960016805802585F
:1058700001794A1E072A32D800B50368DFF870E0C4
:10588000DFF870C0634518BF73451ED00CF1140CCF
:1058900063451AD00CF1140C634516D00CF1140CAE
:1058A000634512D00CF1140C63450ED00CF1140CAE
:1058B00063450AD00CF1140C634506D0084B0B4429
:1058C0009B00C366074B036705E0074B0B449B0037
:1058D000C366064B036701239340436700BD7047CF
:1058E0003F820010400902403F960016405902587E
:1058F000085402581C54025870B5044601F056F979
:10590000002C00F0B481054623685349534A934262
:1059100018BF8B420CBF0121002150D01832934296
:105920004DD0183293424AD01832934247D01832A1
:10593000934244D01832934241D0183293423ED021
:1059400002F5567293423AD01832934237D0183249
:10595000934234D01832934231D0183293422ED031
:10596000183293422BD01832934228D018329342E7
:1059700025D03B493B4A934218BF8B4200F02F8110
:10598000394A934200F02B811432934200F0278170
:105990001432934200F023811432934200F01F81AD
:1059A0001432934200F01B811432934200F01781AD
:1059B00040236365032384F8353001204AE0022246
:1059C00084F83520002284F8342079BB274A93429A
:1059D0002CD01832934229D01832934226D0183254
:1059E000934223D01832934220D0183293421DD0D4
:1059F00002F55672934219D01832934216D01832DB
:105A0000934213D01832934210D0183293420DD0E3
:105A1000183293420AD01832934207D01832934278
:105A200004D01A6822F001021A6003E01A6822F01A
:105A300001021A6023681A6812F0010F18D001F0F1
:105A4000B5F8431B052BF5D920236365032384F8A0
:105A50003530012070BD00BF100002402800024018
:105A6000085402581C540258305402584000024056
:105A70001A6880491140A268E06802432069024325
:105A800060690243A0690243E0690243206A02435D
:105A90000A43616A042900F097806168A1F1290531
:105AA000A1F13F00032888BF052D0AD9A1F14700C5
:105AB000012806D9A1F14F00032802D9743903291E
:105AC00001D842F480121A6023681E465D6925F0F1
:105AD0000705636A1D43042B08D1A36A1D43E36ACB
